S018000053756E53796E6350726F746F547970652E7372656383
S11300000EC015C014C013C012C011C010C00FC060
S11300100EC00DC00CC00BC00AC009C008C011241A
S11300201FBECFE5D2E0DEBFCDBF09D04EC0E8CFC2
S1130030B89AB99A83EB8ABD81E083BF0895F8DF4B
S1130040BA9AC29A89EF90E00197F1F700C00000D4
S1130050C29880E089BD88BDEDE8F2E13197F1F7FF
S113006000C000008F5F8E3FA9F780E089BD88BD86
S1130070EDE8F2E13197F1F700C000008F5F8E3FA9
S1130080A9F72FEF90E819BC28BDFFE936E841E055
S1130090F15030404040E1F700C00000892F89BD95
S11300A088BDE1E5F9E93197F1F700C0000081501E
S11300B0B1F789BD88BDE1E5F9E93197F1F700C0F1
S11100C000008F5F8E3FA9F7DECFF894FFCFCC
S9030000FC
